{"abi":[{"type":"function","name":"Funders","inputs":[{"name":"","type":"uint256","internalType":"uint256"}],"outputs":[{"name":"","type":"address","internalType":"address"}],"stateMutability":"view"},{"type":"function","name":"FundersToAmt","inputs":[{"name":"","type":"address","internalType":"address"}],"outputs":[{"name":"","type":"uint256","internalType":"uint256"}],"stateMutability":"view"},{"type":"function","name":"amount","inputs":[],"outputs":[{"name":"","type":"uint256","internalType":"uint256"}],"stateMutability":"view"},{"type":"function","name":"fundMe","inputs":[],"outputs":[],"stateMutability":"payable"},{"type":"function","name":"getAmountInAddress","inputs":[],"outputs":[{"name":"","type":"uint256","internalType":"uint256"}],"stateMutability":"view"},{"type":"function","name":"getFunders","inputs":[],"outputs":[{"name":"","type":"address[]","internalType":"address[]"}],"stateMutability":"view"},{"type":"function","name":"latestFunder","inputs":[],"outputs":[{"name":"","type":"address","internalType":"address"}],"stateMutability":"view"},{"type":"function","name":"owner","inputs":[],"outputs":[{"name":"","type":"address","internalType":"address"}],"stateMutability":"view"},{"type":"function","name":"withdrawToMe","inputs":[{"name":"_amount","type":"uint256","internalType":"uint256"}],"outputs":[],"stateMutability":"nonpayable"}],"bytecode":{"object":"0x6080604052348015600e575f5ffd5b50610b4a8061001c5f395ff3fe608060405260043610610085575f3560e01c8063bd7492b811610058578063bd7492b814610123578063e56cda081461014d578063ea63a04414610177578063f40df6da146101a1578063f5035d97146101dd57610085565b806348e2f81b146100895780638da5cb5b146100c5578063aa8c217c146100ef578063b6a324e014610119575b5f5ffd5b348015610094575f5ffd5b506100af60048036038101906100aa91906106c6565b610205565b6040516100bc9190610730565b60405180910390f35b3480156100d0575f5ffd5b506100d9610240565b6040516100e69190610730565b60405180910390f35b3480156100fa575f5ffd5b50610103610264565b6040516101109190610758565b60405180910390f35b61012161026a565b005b34801561012e575f5ffd5b50610137610427565b6040516101449190610730565b60405180910390f35b348015610158575f5ffd5b5061016161044c565b60405161016e9190610758565b60405180910390f35b348015610182575f5ffd5b5061018b61046a565b6040516101989190610828565b60405180910390f35b3480156101ac575f5ffd5b506101c760048036038101906101c29190610872565b6104f5565b6040516101d49190610758565b60405180910390f35b3480156101e8575f5ffd5b5061020360048036038101906101fe91906106c6565b61050a565b005b60038181548110610214575f80fd5b905f5260205f20015f915054906101000a900473ffffffffffffffffffffffffffffffffffffffff1681565b5f5f9054906101000a900473ffffffffffffffffffffffffffffffffffffffff1681565b60015481565b335f5f6101000a81548173ffffffffffffffffffffffffffffffffffffffff021916908373ffffffffffffffffffffffffffffffffffffffff1602179055506702c68af0bb1400003410156102f4576040517f08c379a00000000000000000000000000000000000000000000000000000000081526004016102eb9061091d565b60405180910390fd5b346001819055503460045f3373ffffffffffffffffffffffffffffffffffffffff1673ffffffffffffffffffffffffffffffffffffffff1681526020019081526020015f20546103449190610968565b60045f3373ffffffffffffffffffffffffffffffffffffffff1673ffffffffffffffffffffffffffffffffffffffff1681526020019081526020015f2081905550600333908060018154018082558091505060019003905f5260205f20015f9091909190916101000a81548173ffffffffffffffffffffffffffffffffffffffff021916908373ffffffffffffffffffffffffffffffffffffffff1602179055503360025f6101000a81548173ffffffffffffffffffffffffffffffffffffffff021916908373ffffffffffffffffffffffffffffffffffffffff160217905550565b60025f9054906101000a900473ffffffffffffffffffffffffffffffffffffffff1681565b5f3373ffffffffffffffffffffffffffffffffffffffff1631905090565b606060038054806020026020016040519081016040528092919081815260200182805480156104eb57602002820191905f5260205f20905b815f9054906101000a900473ffffffffffffffffffffffffffffffffffffffff1673ffffffffffffffffffffffffffffffffffffffff16815260200190600101908083116104a2575b5050505050905090565b6004602052805f5260405f205f915090505481565b3373ffffffffffffffffffffffffffffffffffffffff165f5f9054906101000a900473ffffffffffffffffffffffffffffffffffffffff1673ffffffffffffffffffffffffffffffffffffffff1614610598576040517f08c379a000000000000000000000000000000000000000000000000000000000815260040161058f906109e5565b60405180910390fd5b60015481106105dc576040517f08c379a00000000000000000000000000000000000000000000000000000000081526004016105d390610a4d565b60405180910390fd5b5f3373ffffffffffffffffffffffffffffffffffffffff168260405161060190610a98565b5f6040518083038185875af1925050503d805f811461063b576040519150601f19603f3d011682016040523d82523d5f602084013e610640565b606091505b50509050600115158115151461068b576040517f08c379a000000000000000000000000000000000000000000000000000000000815260040161068290610af6565b60405180910390fd5b5050565b5f5ffd5b5f819050919050565b6106a581610693565b81146106af575f5ffd5b50565b5f813590506106c08161069c565b92915050565b5f602082840312156106db576106da61068f565b5b5f6106e8848285016106b2565b91505092915050565b5f73ffffffffffffffffffffffffffffffffffffffff82169050919050565b5f61071a826106f1565b9050919050565b61072a81610710565b82525050565b5f6020820190506107435f830184610721565b92915050565b61075281610693565b82525050565b5f60208201905061076b5f830184610749565b92915050565b5f81519050919050565b5f82825260208201905092915050565b5f819050602082019050919050565b6107a381610710565b82525050565b5f6107b4838361079a565b60208301905092915050565b5f602082019050919050565b5f6107d682610771565b6107e0818561077b565b93506107eb8361078b565b805f5b8381101561081b57815161080288826107a9565b975061080d836107c0565b9250506001810190506107ee565b5085935050505092915050565b5f6020820190508181035f83015261084081846107cc565b905092915050565b61085181610710565b811461085b575f5ffd5b50565b5f8135905061086c81610848565b92915050565b5f602082840312156108875761088661068f565b5b5f6108948482850161085e565b91505092915050565b5f82825260208201905092915050565b7f74686973206d757374206265206d6f7265207468616e206f7220657175616c735f8201527f20746f202e322065746865720000000000000000000000000000000000000000602082015250565b5f610907602c8361089d565b9150610912826108ad565b604082019050919050565b5f6020820190508181035f830152610934816108fb565b9050919050565b7f4e487b71000000000000000000000000000000000000000000000000000000005f52601160045260245ffd5b5f61097282610693565b915061097d83610693565b92508282019050808211156109955761099461093b565b5b92915050565b7f796f75206469646e27742066756e64207468697320636f6e74726163740000005f82015250565b5f6109cf601d8361089d565b91506109da8261099b565b602082019050919050565b5f6020820190508181035f8301526109fc816109c3565b9050919050565b7f796f75206469646e74207075742074686174206d7563682062726f00000000005f82015250565b5f610a37601b8361089d565b9150610a4282610a03565b602082019050919050565b5f6020820190508181035f830152610a6481610a2b565b9050919050565b5f81905092915050565b50565b5f610a835f83610a6b565b9150610a8e82610a75565b5f82019050919050565b5f610aa282610a78565b9150819050919050565b7f6261626120676f206261636b00000000000000000000000000000000000000005f82015250565b5f610ae0600c8361089d565b9150610aeb82610aac565b602082019050919050565b5f6020820190508181035f830152610b0d81610ad4565b905091905056fea264697066735822122017a74d09abf986a644cac9e68378fab378c86ee0a52ee28e9b41f7d06b356d4164736f6c634300081e0033","linkReferences":{}},"methodIdentifiers":{"Funders(uint256)":"48e2f81b","FundersToAmt(address)":"f40df6da","amount()":"aa8c217c","fundMe()":"b6a324e0","getAmountInAddress()":"e56cda08","getFunders()":"ea63a044","latestFunder()":"bd7492b8","owner()":"8da5cb5b","withdrawToMe(uint256)":"f5035d97"},"id":0}