{"abi":[{"type":"constructor","inputs":[],"stateMutability":"nonpayable"},{"type":"fallback","stateMutability":"payable"},{"type":"receive","stateMutability":"payable"},{"type":"function","name":"fundMe","inputs":[],"outputs":[],"stateMutability":"payable"},{"type":"function","name":"funders","inputs":[{"name":"","type":"uint256","internalType":"uint256"}],"outputs":[{"name":"","type":"address","internalType":"address"}],"stateMutability":"view"},{"type":"function","name":"fundersToAmt","inputs":[{"name":"","type":"address","internalType":"address"}],"outputs":[{"name":"","type":"uint256","internalType":"uint256"}],"stateMutability":"view"},{"type":"function","name":"getContractBalance","inputs":[],"outputs":[{"name":"","type":"uint256","internalType":"uint256"}],"stateMutability":"view"},{"type":"function","name":"getFunderAmount","inputs":[{"name":"_funder","type":"address","internalType":"address"}],"outputs":[{"name":"","type":"uint256","internalType":"uint256"}],"stateMutability":"view"},{"type":"function","name":"getFundersCount","inputs":[],"outputs":[{"name":"","type":"uint256","internalType":"uint256"}],"stateMutability":"view"},{"type":"function","name":"latestFunder","inputs":[],"outputs":[{"name":"","type":"address","internalType":"address"}],"stateMutability":"view"},{"type":"function","name":"owner","inputs":[],"outputs":[{"name":"","type":"address","internalType":"address"}],"stateMutability":"view"},{"type":"function","name":"withdrawAll","inputs":[],"outputs":[],"stateMutability":"nonpayable"},{"type":"function","name":"withdrawToMe","inputs":[{"name":"_amount","type":"uint256","internalType":"uint256"}],"outputs":[],"stateMutability":"nonpayable"},{"type":"event","name":"Funded","inputs":[{"name":"funder","type":"address","indexed":true,"internalType":"address"},{"name":"amount","type":"uint256","indexed":false,"internalType":"uint256"}],"anonymous":false},{"type":"event","name":"Withdrawn","inputs":[{"name":"to","type":"address","indexed":true,"internalType":"address"},{"name":"amount","type":"uint256","indexed":false,"internalType":"uint256"}],"anonymous":false}],"bytecode":{"object":"0x6080604052348015600e575f5ffd5b50335f5f6101000a81548173ffffffffffffffffffffffffffffffffffffffff021916908373ffffffffffffffffffffffffffffffffffffffff160217905550610d838061005b5f395ff3fe608060405260043610610094575f3560e01c8063b6a324e011610058578063b6a324e01461017d578063bd7492b814610187578063dc0d3dff146101b1578063dec91edc146101ed578063f5035d9714610229576100a3565b80636f9fb98a146100ad578063853828b6146100d75780638da5cb5b146100ed578063920b3a7e14610117578063a350d6cf14610141576100a3565b366100a3576100a1610251565b005b6100ab610251565b005b3480156100b8575f5ffd5b506100c1610424565b6040516100ce919061090d565b60405180910390f35b3480156100e2575f5ffd5b506100eb61042b565b005b3480156100f8575f5ffd5b506101016105b3565b60405161010e9190610965565b60405180910390f35b348015610122575f5ffd5b5061012b6105d7565b604051610138919061090d565b60405180910390f35b34801561014c575f5ffd5b50610167600480360381019061016291906109ac565b6105e3565b604051610174919061090d565b60405180910390f35b610185610251565b005b348015610192575f5ffd5b5061019b6105f8565b6040516101a89190610965565b60405180910390f35b3480156101bc575f5ffd5b506101d760048036038101906101d29190610a01565b61061d565b6040516101e49190610965565b60405180910390f35b3480156101f8575f5ffd5b50610213600480360381019061020e91906109ac565b610658565b604051610220919061090d565b60405180910390f35b348015610234575f5ffd5b5061024f600480360381019061024a9190610a01565b61069e565b005b6702c68af0bb14000034101561029c576040517f08c379a000000000000000000000000000000000000000000000000000000000815260040161029390610a86565b60405180910390fd5b5f60025f3373ffffffffffffffffffffffffffffffffffffffff1673ffffffffffffffffffffffffffffffffffffffff1681526020019081526020015f20540361034157600133908060018154018082558091505060019003905f5260205f20015f9091909190916101000a81548173ffffffffffffffffffffffffffffffffffffffff021916908373ffffffffffffffffffffffffffffffffffffffff1602179055505b3460025f3373ffffffffffffffffffffffffffffffffffffffff1673ffffffffffffffffffffffffffffffffffffffff1681526020019081526020015f205f82825461038d9190610ad1565b925050819055503360035f6101000a81548173ffffffffffffffffffffffffffffffffffffffff021916908373ffffffffffffffffffffffffffffffffffffffff1602179055503373ffffffffffffffffffffffffffffffffffffffff167f5af8184bef8e4b45eb9f6ed7734d04da38ced226495548f46e0c8ff8d7d9a5243460405161041a919061090d565b60405180910390a2565b5f47905090565b610433610865565b5f4790505f8111610479576040517f08c379a000000000000000000000000000000000000000000000000000000000815260040161047090610b4e565b60405180910390fd5b5f5f5f9054906101000a900473ffffffffffffffffffffffffffffffffffffffff1673ffffffffffffffffffffffffffffffffffffffff16826040516104be90610b99565b5f6040518083038185875af1925050503d805f81146104f8576040519150601f19603f3d011682016040523d82523d5f602084013e6104fd565b606091505b5050905080610541576040517f08c379a000000000000000000000000000000000000000000000000000000000815260040161053890610bf7565b60405180910390fd5b5f5f9054906101000a900473ffffffffffffffffffffffffffffffffffffffff1673ffffffffffffffffffffffffffffffffffffffff167f7084f5476618d8e60b11ef0d7d3f06914655adb8793e28ff7f018d4c76d505d5836040516105a7919061090d565b60405180910390a25050565b5f5f9054906101000a900473ffffffffffffffffffffffffffffffffffffffff1681565b5f600180549050905090565b6002602052805f5260405f205f915090505481565b60035f9054906101000a900473ffffffffffffffffffffffffffffffffffffffff1681565b6001818154811061062c575f80fd5b905f5260205f20015f915054906101000a900473ffffffffffffffffffffffffffffffffffffffff1681565b5f60025f8373ffffffffffffffffffffffffffffffffffffffff1673ffffffffffffffffffffffffffffffffffffffff1681526020019081526020015f20549050919050565b6106a6610865565b5f81116106e8576040517f08c379a00000000000000000000000000000000000000000000000000000000081526004016106df90610c5f565b60405180910390fd5b4781111561072b576040517f08c379a000000000000000000000000000000000000000000000000000000000815260040161072290610cc7565b60405180910390fd5b5f5f5f9054906101000a900473ffffffffffffffffffffffffffffffffffffffff1673ffffffffffffffffffffffffffffffffffffffff168260405161077090610b99565b5f6040518083038185875af1925050503d805f81146107aa576040519150601f19603f3d011682016040523d82523d5f602084013e6107af565b606091505b50509050806107f3576040517f08c379a00000000000000000000000000000000000000000000000000000000081526004016107ea90610bf7565b60405180910390fd5b5f5f9054906101000a900473ffffffffffffffffffffffffffffffffffffffff1673ffffffffffffffffffffffffffffffffffffffff167f7084f5476618d8e60b11ef0d7d3f06914655adb8793e28ff7f018d4c76d505d583604051610859919061090d565b60405180910390a25050565b5f5f9054906101000a900473ffffffffffffffffffffffffffffffffffffffff1673ffffffffffffffffffffffffffffffffffffffff163373ffffffffffffffffffffffffffffffffffffffff16146108f3576040517f08c379a00000000000000000000000000000000000000000000000000000000081526004016108ea90610d2f565b60405180910390fd5b565b5f819050919050565b610907816108f5565b82525050565b5f6020820190506109205f8301846108fe565b92915050565b5f73ffffffffffffffffffffffffffffffffffffffff82169050919050565b5f61094f82610926565b9050919050565b61095f81610945565b82525050565b5f6020820190506109785f830184610956565b92915050565b5f5ffd5b61098b81610945565b8114610995575f5ffd5b50565b5f813590506109a681610982565b92915050565b5f602082840312156109c1576109c061097e565b5b5f6109ce84828501610998565b91505092915050565b6109e0816108f5565b81146109ea575f5ffd5b50565b5f813590506109fb816109d7565b92915050565b5f60208284031215610a1657610a1561097e565b5b5f610a23848285016109ed565b91505092915050565b5f82825260208201905092915050565b7f4d7573742073656e64203e3d20302e32204554480000000000000000000000005f82015250565b5f610a70601483610a2c565b9150610a7b82610a3c565b602082019050919050565b5f6020820190508181035f830152610a9d81610a64565b9050919050565b7f4e487b71000000000000000000000000000000000000000000000000000000005f52601160045260245ffd5b5f610adb826108f5565b9150610ae6836108f5565b9250828201905080821115610afe57610afd610aa4565b5b92915050565b7f4e6f2066756e647320746f2077697468647261770000000000000000000000005f82015250565b5f610b38601483610a2c565b9150610b4382610b04565b602082019050919050565b5f6020820190508181035f830152610b6581610b2c565b9050919050565b5f81905092915050565b50565b5f610b845f83610b6c565b9150610b8f82610b76565b5f82019050919050565b5f610ba382610b79565b9150819050919050565b7f5472616e73666572206661696c656400000000000000000000000000000000005f82015250565b5f610be1600f83610a2c565b9150610bec82610bad565b602082019050919050565b5f6020820190508181035f830152610c0e81610bd5565b9050919050565b7f416d6f756e74206d757374206265203e203000000000000000000000000000005f82015250565b5f610c49601283610a2c565b9150610c5482610c15565b602082019050919050565b5f6020820190508181035f830152610c7681610c3d565b9050919050565b7f496e73756666696369656e7420636f6e74726163742062616c616e63650000005f82015250565b5f610cb1601d83610a2c565b9150610cbc82610c7d565b602082019050919050565b5f6020820190508181035f830152610cde81610ca5565b9050919050565b7f4f6e6c79206f776e6572000000000000000000000000000000000000000000005f82015250565b5f610d19600a83610a2c565b9150610d2482610ce5565b602082019050919050565b5f6020820190508181035f830152610d4681610d0d565b905091905056fea2646970667358221220f9377e056cc72f9b95554198c89c0e9ebcdc7f05b783527c7f2398be98e5950564736f6c634300081e0033","linkReferences":{}},"methodIdentifiers":{"fundMe()":"b6a324e0","funders(uint256)":"dc0d3dff","fundersToAmt(address)":"a350d6cf","getContractBalance()":"6f9fb98a","getFunderAmount(address)":"dec91edc","getFundersCount()":"920b3a7e","latestFunder()":"bd7492b8","owner()":"8da5cb5b","withdrawAll()":"853828b6","withdrawToMe(uint256)":"f5035d97"},"id":0}